{
  "contractName": "Adoption",
  "abi": [
    {
      "constant": true,
      "inputs": [
        {
          "internalType": "uint256",
          "name": "",
          "type": "uint256"
        }
      ],
      "name": "adopters",
      "outputs": [
        {
          "internalType": "address",
          "name": "",
          "type": "address"
        }
      ],
      "payable": false,
      "stateMutability": "view",
      "type": "function"
    },
    {
      "constant": false,
      "inputs": [
        {
          "internalType": "uint256",
          "name": "petId",
          "type": "uint256"
        }
      ],
      "name": "adopt",
      "outputs": [
        {
          "internalType": "uint256",
          "name": "",
          "type": "uint256"
        }
      ],
      "payable": false,
      "stateMutability": "nonpayable",
      "type": "function"
    },
    {
      "constant": true,
      "inputs": [],
      "name": "getAdopters",
      "outputs": [
        {
          "internalType": "address[16]",
          "name": "",
          "type": "address[16]"
        }
      ],
      "payable": false,
      "stateMutability": "view",
      "type": "function"
    }
  ],
  "bytecode": "0x608060405234801561001057600080fd5b506101e7806100206000396000f3fe608060405234801561001057600080fd5b50600436106100415760003560e01c80633de4eb171461004657806343ae80d3146100875780638588b2c5146100c0575b600080fd5b61004e6100ef565b604051808261020080838360005b8381101561007457818101518382015260200161005c565b5050505090500191505060405180910390f35b6100a46004803603602081101561009d57600080fd5b5035610135565b604080516001600160a01b039092168252519081900360200190f35b6100dd600480360360208110156100d657600080fd5b5035610152565b60408051918252519081900360200190f35b6100f7610193565b604080516102008101918290529060009060109082845b81546001600160a01b0316815260019091019060200180831161010e575050505050905090565b6000816010811061014257fe5b01546001600160a01b0316905081565b6000600f82111561016257600080fd5b336000836010811061017057fe5b0180546001600160a01b0319166001600160a01b03929092169190911790555090565b604051806102000160405280601090602082028038833950919291505056fea265627a7a72315820df757324a9d079e684bd8b3e84c2afb6d45203161ce6374e25abbd9ab25dcba864736f6c63430005100032",
  "source": "pragma solidity ^0.5.0;\n\ncontract Adoption {\n// define a single variable adopters using address with array length of 16. \n// defined as a public variable which has automatic getter methods\naddress[16] public adopters;\n\n// Adopting a pet Function\n\nfunction adopt(uint petId) public returns (uint) { // In the function you have to specify the input and out types - Integer\n    require(petId >= 0 && petId <= 15); //require statement checks for petId is within range of ID values (16 in our case)\n\n    adopters[petId] = msg.sender; // if in range, we add address that made call to adopters array. \n    // the address of person taht requested is denoted by msg.sender\n\n    return petId;\n}\n\n// Retrieving the adopters Function\n\nfunction getAdopters() public view returns (address[16] memory) { //since adopters is already declared we can just return it. \n// using \"memory\" gives the data location for the variable\n// the \"view\" keyword means that the function does not modify the state of the contract. \n    return adopters;\n}\n\n}\n\n",
  "sourcePath": "/mnt/c/Users/Mason-PC/Documents/GitHub/pet-shop-tutorial/contracts/Adoption.sol",
  "compiler": {
    "name": "solc",
    "version": "0.5.16+commit.9c3226ce.Emscripten.clang"
  },
  "schemaVersion": "3.4.3",
  "updatedAt": "2021-09-21T14:48:39.227Z",
  "networkType": "ethereum",
  "devdoc": {
    "methods": {}
  },
  "userdoc": {
    "methods": {}
  }
}